{
  "address": "0xd8099e6523d43a20bbA137eCFE2941EE72373482",
  "abi": [
    {
      "inputs": [
        {
          "internalType": "address",
          "name": "_VRFCoordinator",
          "type": "address"
        },
        {
          "internalType": "address",
          "name": "_LinkToken",
          "type": "address"
        },
        {
          "internalType": "bytes32",
          "name": "_keyHash",
          "type": "bytes32"
        },
        {
          "internalType": "uint256",
          "name": "_fee",
          "type": "uint256"
        }
      ],
      "stateMutability": "nonpayable",
      "type": "constructor"
    },
    {
      "anonymous": false,
      "inputs": [
        {
          "indexed": true,
          "internalType": "address",
          "name": "owner",
          "type": "address"
        },
        {
          "indexed": true,
          "internalType": "address",
          "name": "approved",
          "type": "address"
        },
        {
          "indexed": true,
          "internalType": "uint256",
          "name": "tokenId",
          "type": "uint256"
        }
      ],
      "name": "Approval",
      "type": "event"
    },
    {
      "anonymous": false,
      "inputs": [
        {
          "indexed": true,
          "internalType": "address",
          "name": "owner",
          "type": "address"
        },
        {
          "indexed": true,
          "internalType": "address",
          "name": "operator",
          "type": "address"
        },
        {
          "indexed": false,
          "internalType": "bool",
          "name": "approved",
          "type": "bool"
        }
      ],
      "name": "ApprovalForAll",
      "type": "event"
    },
    {
      "anonymous": false,
      "inputs": [
        {
          "indexed": true,
          "internalType": "uint256",
          "name": "tokenId",
          "type": "uint256"
        },
        {
          "indexed": false,
          "internalType": "string",
          "name": "tokenURI",
          "type": "string"
        }
      ],
      "name": "CreatedRandomSVG",
      "type": "event"
    },
    {
      "anonymous": false,
      "inputs": [
        {
          "indexed": true,
          "internalType": "uint256",
          "name": "tokenId",
          "type": "uint256"
        },
        {
          "indexed": false,
          "internalType": "uint256",
          "name": "randomNumber",
          "type": "uint256"
        }
      ],
      "name": "CreatedUnfinishedRandomSVG",
      "type": "event"
    },
    {
      "anonymous": false,
      "inputs": [
        {
          "indexed": true,
          "internalType": "address",
          "name": "from",
          "type": "address"
        },
        {
          "indexed": true,
          "internalType": "address",
          "name": "to",
          "type": "address"
        },
        {
          "indexed": true,
          "internalType": "uint256",
          "name": "tokenId",
          "type": "uint256"
        }
      ],
      "name": "Transfer",
      "type": "event"
    },
    {
      "anonymous": false,
      "inputs": [
        {
          "indexed": true,
          "internalType": "bytes32",
          "name": "requestId",
          "type": "bytes32"
        },
        {
          "indexed": true,
          "internalType": "uint256",
          "name": "tokenId",
          "type": "uint256"
        }
      ],
      "name": "requestedRandomSVG",
      "type": "event"
    },
    {
      "inputs": [
        {
          "internalType": "address",
          "name": "to",
          "type": "address"
        },
        {
          "internalType": "uint256",
          "name": "tokenId",
          "type": "uint256"
        }
      ],
      "name": "approve",
      "outputs": [],
      "stateMutability": "nonpayable",
      "type": "function"
    },
    {
      "inputs": [
        {
          "internalType": "address",
          "name": "owner",
          "type": "address"
        }
      ],
      "name": "balanceOf",
      "outputs": [
        {
          "internalType": "uint256",
          "name": "",
          "type": "uint256"
        }
      ],
      "stateMutability": "view",
      "type": "function"
    },
    {
      "inputs": [
        {
          "internalType": "uint256",
          "name": "",
          "type": "uint256"
        }
      ],
      "name": "colors",
      "outputs": [
        {
          "internalType": "string",
          "name": "",
          "type": "string"
        }
      ],
      "stateMutability": "view",
      "type": "function"
    },
    {
      "inputs": [],
      "name": "create",
      "outputs": [
        {
          "internalType": "bytes32",
          "name": "requestId",
          "type": "bytes32"
        }
      ],
      "stateMutability": "nonpayable",
      "type": "function"
    },
    {
      "inputs": [],
      "name": "fee",
      "outputs": [
        {
          "internalType": "uint256",
          "name": "",
          "type": "uint256"
        }
      ],
      "stateMutability": "view",
      "type": "function"
    },
    {
      "inputs": [
        {
          "internalType": "uint256",
          "name": "_tokenId",
          "type": "uint256"
        }
      ],
      "name": "finishMint",
      "outputs": [],
      "stateMutability": "nonpayable",
      "type": "function"
    },
    {
      "inputs": [
        {
          "internalType": "string",
          "name": "_imageURI",
          "type": "string"
        }
      ],
      "name": "formatTokenURI",
      "outputs": [
        {
          "internalType": "string",
          "name": "",
          "type": "string"
        }
      ],
      "stateMutability": "pure",
      "type": "function"
    },
    {
      "inputs": [
        {
          "internalType": "uint256",
          "name": "_randomNumber",
          "type": "uint256"
        }
      ],
      "name": "generatePath",
      "outputs": [
        {
          "internalType": "string",
          "name": "pathSvg",
          "type": "string"
        }
      ],
      "stateMutability": "view",
      "type": "function"
    },
    {
      "inputs": [
        {
          "internalType": "uint256",
          "name": "_randomNumber",
          "type": "uint256"
        }
      ],
      "name": "generatePathCommand",
      "outputs": [
        {
          "internalType": "string",
          "name": "pathCommand",
          "type": "string"
        }
      ],
      "stateMutability": "view",
      "type": "function"
    },
    {
      "inputs": [
        {
          "internalType": "uint256",
          "name": "_randomNumber",
          "type": "uint256"
        }
      ],
      "name": "generateSVG",
      "outputs": [
        {
          "internalType": "string",
          "name": "finalSVG",
          "type": "string"
        }
      ],
      "stateMutability": "view",
      "type": "function"
    },
    {
      "inputs": [
        {
          "internalType": "uint256",
          "name": "tokenId",
          "type": "uint256"
        }
      ],
      "name": "getApproved",
      "outputs": [
        {
          "internalType": "address",
          "name": "",
          "type": "address"
        }
      ],
      "stateMutability": "view",
      "type": "function"
    },
    {
      "inputs": [
        {
          "internalType": "address",
          "name": "owner",
          "type": "address"
        },
        {
          "internalType": "address",
          "name": "operator",
          "type": "address"
        }
      ],
      "name": "isApprovedForAll",
      "outputs": [
        {
          "internalType": "bool",
          "name": "",
          "type": "bool"
        }
      ],
      "stateMutability": "view",
      "type": "function"
    },
    {
      "inputs": [],
      "name": "keyHash",
      "outputs": [
        {
          "internalType": "bytes32",
          "name": "",
          "type": "bytes32"
        }
      ],
      "stateMutability": "view",
      "type": "function"
    },
    {
      "inputs": [],
      "name": "maxNumberOfCommands",
      "outputs": [
        {
          "internalType": "uint256",
          "name": "",
          "type": "uint256"
        }
      ],
      "stateMutability": "view",
      "type": "function"
    },
    {
      "inputs": [],
      "name": "maxNumberOfPaths",
      "outputs": [
        {
          "internalType": "uint256",
          "name": "",
          "type": "uint256"
        }
      ],
      "stateMutability": "view",
      "type": "function"
    },
    {
      "inputs": [],
      "name": "name",
      "outputs": [
        {
          "internalType": "string",
          "name": "",
          "type": "string"
        }
      ],
      "stateMutability": "view",
      "type": "function"
    },
    {
      "inputs": [
        {
          "internalType": "uint256",
          "name": "tokenId",
          "type": "uint256"
        }
      ],
      "name": "ownerOf",
      "outputs": [
        {
          "internalType": "address",
          "name": "",
          "type": "address"
        }
      ],
      "stateMutability": "view",
      "type": "function"
    },
    {
      "inputs": [
        {
          "internalType": "uint256",
          "name": "",
          "type": "uint256"
        }
      ],
      "name": "pathCommands",
      "outputs": [
        {
          "internalType": "string",
          "name": "",
          "type": "string"
        }
      ],
      "stateMutability": "view",
      "type": "function"
    },
    {
      "inputs": [
        {
          "internalType": "bytes32",
          "name": "requestId",
          "type": "bytes32"
        },
        {
          "internalType": "uint256",
          "name": "randomness",
          "type": "uint256"
        }
      ],
      "name": "rawFulfillRandomness",
      "outputs": [],
      "stateMutability": "nonpayable",
      "type": "function"
    },
    {
      "inputs": [
        {
          "internalType": "bytes32",
          "name": "",
          "type": "bytes32"
        }
      ],
      "name": "requestIdToSender",
      "outputs": [
        {
          "internalType": "address",
          "name": "",
          "type": "address"
        }
      ],
      "stateMutability": "view",
      "type": "function"
    },
    {
      "inputs": [
        {
          "internalType": "bytes32",
          "name": "",
          "type": "bytes32"
        }
      ],
      "name": "requestIdToTokenId",
      "outputs": [
        {
          "internalType": "uint256",
          "name": "",
          "type": "uint256"
        }
      ],
      "stateMutability": "view",
      "type": "function"
    },
    {
      "inputs": [
        {
          "internalType": "address",
          "name": "from",
          "type": "address"
        },
        {
          "internalType": "address",
          "name": "to",
          "type": "address"
        },
        {
          "internalType": "uint256",
          "name": "tokenId",
          "type": "uint256"
        }
      ],
      "name": "safeTransferFrom",
      "outputs": [],
      "stateMutability": "nonpayable",
      "type": "function"
    },
    {
      "inputs": [
        {
          "internalType": "address",
          "name": "from",
          "type": "address"
        },
        {
          "internalType": "address",
          "name": "to",
          "type": "address"
        },
        {
          "internalType": "uint256",
          "name": "tokenId",
          "type": "uint256"
        },
        {
          "internalType": "bytes",
          "name": "_data",
          "type": "bytes"
        }
      ],
      "name": "safeTransferFrom",
      "outputs": [],
      "stateMutability": "nonpayable",
      "type": "function"
    },
    {
      "inputs": [
        {
          "internalType": "address",
          "name": "operator",
          "type": "address"
        },
        {
          "internalType": "bool",
          "name": "approved",
          "type": "bool"
        }
      ],
      "name": "setApprovalForAll",
      "outputs": [],
      "stateMutability": "nonpayable",
      "type": "function"
    },
    {
      "inputs": [
        {
          "internalType": "bytes4",
          "name": "interfaceId",
          "type": "bytes4"
        }
      ],
      "name": "supportsInterface",
      "outputs": [
        {
          "internalType": "bool",
          "name": "",
          "type": "bool"
        }
      ],
      "stateMutability": "view",
      "type": "function"
    },
    {
      "inputs": [
        {
          "internalType": "string",
          "name": "_svg",
          "type": "string"
        }
      ],
      "name": "svgToImageURI",
      "outputs": [
        {
          "internalType": "string",
          "name": "",
          "type": "string"
        }
      ],
      "stateMutability": "pure",
      "type": "function"
    },
    {
      "inputs": [],
      "name": "symbol",
      "outputs": [
        {
          "internalType": "string",
          "name": "",
          "type": "string"
        }
      ],
      "stateMutability": "view",
      "type": "function"
    },
    {
      "inputs": [],
      "name": "tokenCounter",
      "outputs": [
        {
          "internalType": "uint256",
          "name": "",
          "type": "uint256"
        }
      ],
      "stateMutability": "view",
      "type": "function"
    },
    {
      "inputs": [
        {
          "internalType": "uint256",
          "name": "",
          "type": "uint256"
        }
      ],
      "name": "tokenIdToRandomNumber",
      "outputs": [
        {
          "internalType": "uint256",
          "name": "",
          "type": "uint256"
        }
      ],
      "stateMutability": "view",
      "type": "function"
    },
    {
      "inputs": [
        {
          "internalType": "uint256",
          "name": "tokenId",
          "type": "uint256"
        }
      ],
      "name": "tokenURI",
      "outputs": [
        {
          "internalType": "string",
          "name": "",
          "type": "string"
        }
      ],
      "stateMutability": "view",
      "type": "function"
    },
    {
      "inputs": [
        {
          "internalType": "address",
          "name": "from",
          "type": "address"
        },
        {
          "internalType": "address",
          "name": "to",
          "type": "address"
        },
        {
          "internalType": "uint256",
          "name": "tokenId",
          "type": "uint256"
        }
      ],
      "name": "transferFrom",
      "outputs": [],
      "stateMutability": "nonpayable",
      "type": "function"
    }
  ],
  "transactionHash": "0xfcb54eaf3b0d499b8c9717dee3b7936c3024f7b660e6d56aa086d293eee8a60c",
  "args": [
    "0xb3dCcb4Cf7a26f6cf6B120Cf5A73875B7BBc655B",
    "0x01BE23585060835E02B77ef475b0Cc51aA1e0709",
    "0x2ed0feb3e7fd2022120aa84fab1945545a9f2ffc9076fd6156fa96eaff4c1311",
    "100000000000000000"
  ],
  "solcInputHash": "ced4055ad3b122e01a28df79be7b92f6",
  "bytecode": "0x60c06040523480156200001157600080fd5b5060405162004e7a38038062004e7a8339818101604052810190620000379190620005c3565b83836040518060400160405280600981526020017f52616e646f6d53564700000000000000000000000000000000000000000000008152506040518060400160405280600781526020017f727376674e4654000000000000000000000000000000000000000000000000008152508160009080519060200190620000bd92919062000392565b508060019080519060200190620000d692919062000392565b5050508173ffffffffffffffffffffffffffffffffffffffff1660a08173ffffffffffffffffffffffffffffffffffffffff1660601b815250508073ffffffffffffffffffffffffffffffffffffffff1660808173ffffffffffffffffffffffffffffffffffffffff1660601b81525050505080600981905550816008819055506000600a81905550600c600b819055506005600c819055506101f4600d8190555060405180604001604052806040518060400160405280600181526020017f4d0000000000000000000000000000000000000000000000000000000000000081525081526020016040518060400160405280600181526020017f4c00000000000000000000000000000000000000000000000000000000000000815250815250600e9060026200020992919062000423565b506040518060c001604052806040518060400160405280600381526020017f726564000000000000000000000000000000000000000000000000000000000081525081526020016040518060400160405280600481526020017f626c75650000000000000000000000000000000000000000000000000000000081525081526020016040518060400160405280600581526020017f677265656e00000000000000000000000000000000000000000000000000000081525081526020016040518060400160405280600681526020017f79656c6c6f77000000000000000000000000000000000000000000000000000081525081526020016040518060400160405280600581526020017f626c61636b00000000000000000000000000000000000000000000000000000081525081526020016040518060400160405280600581526020017f7768697465000000000000000000000000000000000000000000000000000000815250815250600f906006620003879291906200048a565b50505050506200072a565b828054620003a09062000677565b90600052602060002090601f016020900481019282620003c4576000855562000410565b82601f10620003df57805160ff191683800117855562000410565b8280016001018555821562000410579182015b828111156200040f578251825591602001919060010190620003f2565b5b5090506200041f9190620004f1565b5090565b82805482825590600052602060002090810192821562000477579160200282015b82811115620004765782518290805190602001906200046592919062000392565b509160200191906001019062000444565b5b50905062000486919062000510565b5090565b828054828255906000526020600020908101928215620004de579160200282015b82811115620004dd578251829080519060200190620004cc92919062000392565b5091602001919060010190620004ab565b5b509050620004ed919062000510565b5090565b5b808211156200050c576000816000905550600101620004f2565b5090565b5b808211156200053457600081816200052a919062000538565b5060010162000511565b5090565b508054620005469062000677565b6000825580601f106200055a57506200057b565b601f0160209004906000526020600020908101906200057a9190620004f1565b5b50565b6000815190506200058f81620006dc565b92915050565b600081519050620005a681620006f6565b92915050565b600081519050620005bd8162000710565b92915050565b60008060008060808587031215620005da57600080fd5b6000620005ea878288016200057e565b9450506020620005fd878288016200057e565b9350506040620006108782880162000595565b92505060606200062387828801620005ac565b91505092959194509250565b60006200063c826200064d565b9050919050565b6000819050919050565b600073ffffffffffffffffffffffffffffffffffffffff82169050919050565b6000819050919050565b600060028204905060018216806200069057607f821691505b60208210811415620006a757620006a6620006ad565b5b50919050565b7f4e487b7100000000000000000000000000000000000000000000000000000000600052602260045260246000fd5b620006e7816200062f565b8114620006f357600080fd5b50565b620007018162000643565b81146200070d57600080fd5b50565b6200071b816200066d565b81146200072757600080fd5b50565b60805160601c60a05160601c61471d6200075d600039600081816111750152612537015260006124fb015261471d6000f3fe608060405234801561001057600080fd5b50600436106101e55760003560e01c806371aee1931161010f578063bd11f69d116100a2578063d082e38111610071578063d082e38114610614578063ddca3f4314610632578063e985e9c514610650578063efc81a8c14610680576101e5565b8063bd11f69d14610566578063c21bf36f14610596578063c68b49d1146105b4578063c87b56dd146105e4576101e5565b80639c1cd795116100de5780639c1cd795146104e0578063a20f21a614610510578063a22cb4651461052e578063b88d4fde1461054a576101e5565b806371aee1931461044657806394985ddd14610476578063955968d41461049257806395d89b41146104c2576101e5565b806330d871c611610187578063624194c711610156578063624194c71461039a5780636352211e146103b65780636dcee4ca146103e657806370a0823114610416576101e5565b806330d871c61461030057806333af59891461033057806342842e0e1461036057806361728f391461037c576101e5565b8063095ea7b3116101c3578063095ea7b314610268578063219c0eee1461028457806322881f88146102b457806323b872dd146102e4576101e5565b806301ffc9a7146101ea57806306fdde031461021a578063081812fc14610238575b600080fd5b61020460048036038101906101ff91906130a6565b61069e565b6040516102119190613e30565b60405180910390f35b610222610780565b60405161022f9190613ed4565b60405180910390f35b610252600480360381019061024d9190613139565b610812565b60405161025f9190613d8b565b60405180910390f35b610282600480360381019061027d9190612fdc565b610897565b005b61029e60048036038101906102999190613041565b6109af565b6040516102ab9190613d8b565b60405180910390f35b6102ce60048036038101906102c99190613041565b6109e2565b6040516102db9190614176565b60405180910390f35b6102fe60048036038101906102f99190612ed6565b6109fa565b005b61031a600480360381019061031591906130f8565b610a5a565b6040516103279190613ed4565b60405180910390f35b61034a60048036038101906103459190613139565b610af3565b6040516103579190613ed4565b60405180910390f35b61037a60048036038101906103759190612ed6565b610ce5565b005b610384610d05565b6040516103919190613e4b565b60405180910390f35b6103b460048036038101906103af9190613139565b610d0b565b005b6103d060048036038101906103cb9190613139565b610e7a565b6040516103dd9190613d8b565b60405180910390f35b61040060048036038101906103fb9190613139565b610f2c565b60405161040d9190613ed4565b60405180910390f35b610430600480360381019061042b9190612e71565b61102e565b60405161043d9190614176565b60405180910390f35b610460600480360381019061045b91906130f8565b6110e6565b60405161046d9190613ed4565b60405180910390f35b610490600480360381019061048b919061306a565b611173565b005b6104ac60048036038101906104a79190613139565b61120f565b6040516104b99190613ed4565b60405180910390f35b6104ca6112bb565b6040516104d79190613ed4565b60405180910390f35b6104fa60048036038101906104f59190613139565b61134d565b6040516105079190614176565b60405180910390f35b610518611365565b6040516105259190614176565b60405180910390f35b61054860048036038101906105439190612fa0565b61136b565b005b610564600480360381019061055f9190612f25565b6114ec565b005b610580600480360381019061057b9190613139565b61154e565b60405161058d9190613ed4565b60405180910390f35b61059e6115fa565b6040516105ab9190614176565b60405180910390f35b6105ce60048036038101906105c99190613139565b611600565b6040516105db9190613ed4565b60405180910390f35b6105fe60048036038101906105f99190613139565b6117b3565b60405161060b9190613ed4565b60405180910390f35b61061c611905565b6040516106299190614176565b60405180910390f35b61063a61190b565b6040516106479190614176565b60405180910390f35b61066a60048036038101906106659190612e9a565b611911565b6040516106779190613e30565b60405180910390f35b6106886119a5565b6040516106959190613e4b565b60405180910390f35b60007f80ac58cd000000000000000000000000000000000000000000000000000000007bffffffffffffffffffffffffffffffffffffffffffffffffffffffff1916827bffffffffffffffffffffffffffffffffffffffffffffffffffffffff1916148061076957507f5b5e139f000000000000000000000000000000000000000000000000000000007bffffffffffffffffffffffffffffffffffffffffffffffffffffffff1916827bffffffffffffffffffffffffffffffffffffffffffffffffffffffff1916145b80610779575061077882611a74565b5b9050919050565b60606000805461078f906144a7565b80601f01602080910402602001604051908101604052809291908181526020018280546107bb906144a7565b80156108085780601f106107dd57610100808354040283529160200191610808565b820191906000526020600020905b8154815290600101906020018083116107eb57829003601f168201915b5050505050905090565b600061081d82611ade565b61085c576040517f08c379a000000000000000000000000000000000000000000000000000000000815260040161085390614096565b60405180910390fd5b6004600083815260200190815260200160002060009054906101000a900473ffffffffffffffffffffffffffffffffffffffff169050919050565b60006108a282610e7a565b90508073ffffffffffffffffffffffffffffffffffffffff168373ffffffffffffffffffffffffffffffffffffffff161415610913576040517f08c379a000000000000000000000000000000000000000000000000000000000815260040161090a90614116565b60405180910390fd5b8073ffffffffffffffffffffffffffffffffffffffff16610932611b4a565b73ffffffffffffffffffffffffffffffffffffffff16148061096157506109608161095b611b4a565b611911565b5b6109a0576040517f08c379a000000000000000000000000000000000000000000000000000000000815260040161099790613fd6565b60405180910390fd5b6109aa8383611b52565b505050565b60106020528060005260406000206000915054906101000a900473ffffffffffffffffffffffffffffffffffffffff1681565b60116020528060005260406000206000915090505481565b610a0b610a05611b4a565b82611c0b565b610a4a576040517f08c379a0000000000000000000000000000000000000000000000000000000008152600401610a4190614136565b60405180910390fd5b610a55838383611ce9565b505050565b606060006040518060400160405280601a81526020017f646174613a696d6167652f7376672b786d6c3b6261736536342c00000000000081525090506000610ac084604051602001610aac9190613c3b565b604051602081830303815290604052611f45565b905060008282604051602001610ad7929190613c52565b6040516020818303038152906040529050809350505050919050565b606060006001600c5484610b079190614536565b610b11919061428e565b90506040518060400160405280600981526020017f3c7061746820643d270000000000000000000000000000000000000000000000815250915060005b81811015610bd95760008482600d54610b67919061428e565b604051602001610b78929190614191565b6040516020818303038152906040528051906020012060001c90506000610b9e82611600565b90508481604051602001610bb3929190613c52565b604051602081830303815290604052945050508080610bd1906144d9565b915050610b4e565b506000600f808054905085610bee9190614536565b81548110610c25577f4e487b7100000000000000000000000000000000000000000000000000000000600052603260045260246000fd5b906000526020600020018054610c3a906144a7565b80601f0160208091040260200160405190810160405280929190818152602001828054610c66906144a7565b8015610cb35780601f10610c8857610100808354040283529160200191610cb3565b820191906000526020600020905b815481529060010190602001808311610c9657829003601f168201915b505050505090508281604051602001610ccd929190613c76565b60405160208183030381529060405292505050919050565b610d00838383604051806020016040528060008152506114ec565b505050565b60085481565b6000610d16826117b3565b511115610d58576040517f08c379a0000000000000000000000000000000000000000000000000000000008152600401610d4f90613f96565b60405180910390fd5b80600a5411610d9c576040517f08c379a0000000000000000000000000000000000000000000000000000000008152600401610d9390613f36565b60405180910390fd5b6000601260008381526020019081526020016000205411610df2576040517f08c379a0000000000000000000000000000000000000000000000000000000008152600401610de990614156565b60405180910390fd5b6000601260008381526020019081526020016000205490506000610e1582610f2c565b90506000610e2282610a5a565b90506000610e2f826110e6565b9050610e3b85826120e4565b847f15a6487b7915a7116ce2a61d43b17e9b47484b1931f3c79f2f3d139b307b389384604051610e6b9190613ed4565b60405180910390a25050505050565b6000806002600084815260200190815260200160002060009054906101000a900473ffffffffffffffffffffffffffffffffffffffff169050600073ffffffffffffffffffffffffffffffffffffffff168173ffffffffffffffffffffffffffffffffffffffff161415610f23576040517f08c379a0000000000000000000000000000000000000000000000000000000008152600401610f1a90614016565b60405180910390fd5b80915050919050565b606060006001600b5484610f409190614536565b610f4a919061428e565b9050610f57600d54612158565b610f62600d54612158565b604051602001610f73929190613d19565b604051602081830303815290604052915060005b818110156110055760008482604051602001610fa4929190614191565b6040516020818303038152906040528051906020012060001c90506000610fca82610af3565b90508481604051602001610fdf929190613c52565b604051602081830303815290604052945050508080610ffd906144d9565b915050610f87565b50816040516020016110179190613cf7565b604051602081830303815290604052915050919050565b60008073ffffffffffffffffffffffffffffffffffffffff168273ffffffffffffffffffffffffffffffffffffffff16141561109f576040517f08c379a000000000000000000000000000000000000000000000000000000000815260040161109690613ff6565b60405180910390fd5b600360008373ffffffffffffffffffffffffffffffffffffffff1673ffffffffffffffffffffffffffffffffffffffff168152602001908152602001600020549050919050565b606060006040518060400160405280601d81526020017f646174613a6170706c69636174696f6e2f6a736f6e3b6261736536342c00000081525090508061114b846040516020016111379190613d5e565b604051602081830303815290604052611f45565b60405160200161115c929190613c52565b604051602081830303815290604052915050919050565b7f000000000000000000000000000000000000000000000000000000000000000073ffffffffffffffffffffffffffffffffffffffff163373ffffffffffffffffffffffffffffffffffffffff1614611201576040517f08c379a00000000000000000000000000000000000000000000000000000000081526004016111f8906140f6565b60405180910390fd5b61120b828261232d565b5050565b600e818154811061121f57600080fd5b90600052602060002001600091509050805461123a906144a7565b80601f0160208091040260200160405190810160405280929190818152602001828054611266906144a7565b80156112b35780601f10611288576101008083540402835291602001916112b3565b820191906000526020600020905b81548152906001019060200180831161129657829003601f168201915b505050505081565b6060600180546112ca906144a7565b80601f01602080910402602001604051908101604052809291908181526020018280546112f6906144a7565b80156113435780601f1061131857610100808354040283529160200191611343565b820191906000526020600020905b81548152906001019060200180831161132657829003601f168201915b5050505050905090565b60126020528060005260406000206000915090505481565b600c5481565b611373611b4a565b73ffffffffffffffffffffffffffffffffffffffff168273ffffffffffffffffffffffffffffffffffffffff1614156113e1576040517f08c379a00000000000000000000000000000000000000000000000000000000081526004016113d890613f76565b60405180910390fd5b80600560006113ee611b4a565b73ffffffffffffffffffffffffffffffffffffffff1673ffffffffffffffffffffffffffffffffffffffff16815260200190815260200160002060008473ffffffffffffffffffffffffffffffffffffffff1673ffffffffffffffffffffffffffffffffffffffff16815260200190815260200160002060006101000a81548160ff0219169083151502179055508173ffffffffffffffffffffffffffffffffffffffff1661149b611b4a565b73ffffffffffffffffffffffffffffffffffffffff167f17307eab39ab6107e8899845ad3d59bd9653f200f220920489ca2b5937696c31836040516114e09190613e30565b60405180910390a35050565b6114fd6114f7611b4a565b83611c0b565b61153c576040517f08c379a000000000000000000000000000000000000000000000000000000000815260040161153390614136565b60405180910390fd5b611548848484846123dd565b50505050565b600f818154811061155e57600080fd5b906000526020600020016000915090508054611579906144a7565b80601f01602080910402602001604051908101604052809291908181526020018280546115a5906144a7565b80156115f25780601f106115c7576101008083540402835291602001916115f2565b820191906000526020600020905b8154815290600101906020018083116115d557829003601f168201915b505050505081565b600b5481565b6060600e8080549050836116149190614536565b8154811061164b577f4e487b7100000000000000000000000000000000000000000000000000000000600052603260045260246000fd5b906000526020600020018054611660906144a7565b80601f016020809104026020016040519081016040528092919081815260200182805461168c906144a7565b80156116d95780601f106116ae576101008083540402835291602001916116d9565b820191906000526020600020905b8154815290600101906020018083116116bc57829003601f168201915b505050505090506000600d54836006600d546116f5919061434c565b604051602001611706929190614191565b6040516020818303038152906040528051906020012060001c6117299190614536565b90506000600d54846002600d54611740919061434c565b604051602001611751929190614191565b6040516020818303038152906040528051906020012060001c6117749190614536565b90508261178083612158565b61178983612158565b60405160200161179b93929190613cb0565b60405160208183030381529060405292505050919050565b60606117be82611ade565b6117fd576040517f08c379a00000000000000000000000000000000000000000000000000000000081526004016117f490614076565b60405180910390fd5b600060066000848152602001908152602001600020805461181d906144a7565b80601f0160208091040260200160405190810160405280929190818152602001828054611849906144a7565b80156118965780601f1061186b57610100808354040283529160200191611896565b820191906000526020600020905b81548152906001019060200180831161187957829003601f168201915b5050505050905060006118a7612439565b90506000815114156118bd578192505050611900565b6000825111156118f25780826040516020016118da929190613c52565b60405160208183030381529060405292505050611900565b6118fb84612450565b925050505b919050565b600a5481565b60095481565b6000600560008473ffffffffffffffffffffffffffffffffffffffff1673ffffffffffffffffffffffffffffffffffffffff16815260200190815260200160002060008373ffffffffffffffffffffffffffffffffffffffff1673ffffffffffffffffffffffffffffffffffffffff16815260200190815260200160002060009054906101000a900460ff16905092915050565b60006119b56008546009546124f7565b9050336010600083815260200190815260200160002060006101000a81548173ffffffffffffffffffffffffffffffffffffffff021916908373ffffffffffffffffffffffffffffffffffffffff1602179055506000600a5490508060116000848152602001908152602001600020819055506001600a6000828254611a3b919061428e565b9250508190555080827fb97343f1f2afc4959f818046ccae28fd7b05fcd2b7a7dc651cbb52a096cae03560405160405180910390a35090565b60007f01ffc9a7000000000000000000000000000000000000000000000000000000007bffffffffffffffffffffffffffffffffffffffffffffffffffffffff1916827bffffffffffffffffffffffffffffffffffffffffffffffffffffffff1916149050919050565b60008073ffffffffffffffffffffffffffffffffffffffff166002600084815260200190815260200160002060009054906101000a900473ffffffffffffffffffffffffffffffffffffffff1673ffffffffffffffffffffffffffffffffffffffff1614159050919050565b600033905090565b816004600083815260200190815260200160002060006101000a81548173ffffffffffffffffffffffffffffffffffffffff021916908373ffffffffffffffffffffffffffffffffffffffff160217905550808273ffffffffffffffffffffffffffffffffffffffff16611bc583610e7a565b73ffffffffffffffffffffffffffffffffffffffff167f8c5be1e5ebec7d5bd14f71427d1e84f3dd0314c0f7b2291e5b200ac8c7c3b92560405160405180910390a45050565b6000611c1682611ade565b611c55576040517f08c379a0000000000000000000000000000000000000000000000000000000008152600401611c4c90613fb6565b60405180910390fd5b6000611c6083610e7a565b90508073ffffffffffffffffffffffffffffffffffffffff168473ffffffffffffffffffffffffffffffffffffffff161480611ccf57508373ffffffffffffffffffffffffffffffffffffffff16611cb784610812565b73ffffffffffffffffffffffffffffffffffffffff16145b80611ce05750611cdf8185611911565b5b91505092915050565b8273ffffffffffffffffffffffffffffffffffffffff16611d0982610e7a565b73ffffffffffffffffffffffffffffffffffffffff1614611d5f576040517f08c379a0000000000000000000000000000000000000000000000000000000008152600401611d56906140b6565b60405180910390fd5b600073ffffffffffffffffffffffffffffffffffffffff168273ffffffffffffffffffffffffffffffffffffffff161415611dcf576040517f08c379a0000000000000000000000000000000000000000000000000000000008152600401611dc690613f56565b60405180910390fd5b611dda838383612659565b611de5600082611b52565b6001600360008573ffffffffffffffffffffffffffffffffffffffff1673ffffffffffffffffffffffffffffffffffffffff1681526020019081526020016000206000828254611e3591906143a6565b925050819055506001600360008473ffffffffffffffffffffffffffffffffffffffff1673ffffffffffffffffffffffffffffffffffffffff1681526020019081526020016000206000828254611e8c919061428e565b92505081905550816002600083815260200190815260200160002060006101000a81548173ffffffffffffffffffffffffffffffffffffffff021916908373ffffffffffffffffffffffffffffffffffffffff160217905550808273ffffffffffffffffffffffffffffffffffffffff168473ffffffffffffffffffffffffffffffffffffffff167fddf252ad1be2c89b69c2b068fc378daa952ba7f163c4a11628f55a4df523b3ef60405160405180910390a4505050565b6060600082511415611f68576040518060200160405280600081525090506120df565b60006040518060600160405280604081526020016146a86040913990506000600360028551611f97919061428e565b611fa1919061431b565b6004611fad919061434c565b90506000602082611fbe919061428e565b67ffffffffffffffff811115611ffd577f4e487b7100000000000000000000000000000000000000000000000000000000600052604160045260246000fd5b6040519080825280601f01601f19166020018201604052801561202f5781602001600182028036833780820191505090505b509050818152600183018586518101602084015b8183101561209e576003830192508251603f8160121c168501518253600182019150603f81600c1c168501518253600182019150603f8160061c168501518253600182019150603f8116850151825360018201915050612043565b6003895106600181146120b857600281146120c8576120d3565b613d3d60f01b60028303526120d3565b603d60f81b60018303525b50505050508093505050505b919050565b6120ed82611ade565b61212c576040517f08c379a000000000000000000000000000000000000000000000000000000000815260040161212390614036565b60405180910390fd5b80600660008481526020019081526020016000209080519060200190612153929190612c6b565b505050565b606060008214156121a0576040518060400160405280600181526020017f30000000000000000000000000000000000000000000000000000000000000008152509050612328565b600082905060005b600082146121d25780806121bb906144d9565b915050600a826121cb919061431b565b91506121a8565b60008167ffffffffffffffff811115612214577f4e487b7100000000000000000000000000000000000000000000000000000000600052604160045260246000fd5b6040519080825280601f01601f1916602001820160405280156122465781602001600182028036833780820191505090505b50905060008290505b600086146123205760018161226491906143a6565b90506000600a8088612276919061431b565b612280919061434c565b8761228b91906143a6565b603061229791906142e4565b905060008160f81b9050808484815181106122db577f4e487b7100000000000000000000000000000000000000000000000000000000600052603260045260246000fd5b60200101907effffffffffffffffffffffffffffffffffffffffffffffffffffffffffffff1916908160001a905350600a88612317919061431b565b9750505061224f565b819450505050505b919050565b60006010600084815260200190815260200160002060009054906101000a900473ffffffffffffffffffffffffffffffffffffffff169050600060116000858152602001908152602001600020549050612387828261265e565b826012600083815260200190815260200160002081905550807faad5362ce528ed941024b95d4c18dfd49b8503e1f586a5c353631d98c2af41b7846040516123cf9190614176565b60405180910390a250505050565b6123e8848484611ce9565b6123f48484848461267c565b612433576040517f08c379a000000000000000000000000000000000000000000000000000000000815260040161242a90613ef6565b60405180910390fd5b50505050565b606060405180602001604052806000815250905090565b606061245b82611ade565b61249a576040517f08c379a0000000000000000000000000000000000000000000000000000000008152600401612491906140d6565b60405180910390fd5b60006124a4612439565b905060008151116124c457604051806020016040528060008152506124ef565b806124ce84612813565b6040516020016124df929190613c52565b6040516020818303038152906040525b915050919050565b60007f000000000000000000000000000000000000000000000000000000000000000073ffffffffffffffffffffffffffffffffffffffff16634000aea07f00000000000000000000000000000000000000000000000000000000000000008486600060405160200161256b929190613e66565b6040516020818303038152906040526040518463ffffffff1660e01b815260040161259893929190613df2565b602060405180830381600087803b1580156125b257600080fd5b505af11580156125c6573d6000803e3d6000fd5b505050506040513d601f19601f820116820180604052508101906125ea9190613018565b50600061260d8460003060076000898152602001908152602001600020546129c0565b90506001600760008681526020019081526020016000205461262f919061428e565b600760008681526020019081526020016000208190555061265084826129fc565b91505092915050565b505050565b612678828260405180602001604052806000815250612a2f565b5050565b600061269d8473ffffffffffffffffffffffffffffffffffffffff16612a8a565b15612806578373ffffffffffffffffffffffffffffffffffffffff1663150b7a026126c6611b4a565b8786866040518563ffffffff1660e01b81526004016126e89493929190613da6565b602060405180830381600087803b15801561270257600080fd5b505af192505050801561273357506040513d601f19601f8201168201806040525081019061273091906130cf565b60015b6127b6573d8060008114612763576040519150601f19603f3d011682016040523d82523d6000602084013e612768565b606091505b506000815114156127ae576040517f08c379a00000000000000000000000000000000000000000000000000000000081526004016127a590613ef6565b60405180910390fd5b805181602001fd5b63150b7a0260e01b7bffffffffffffffffffffffffffffffffffffffffffffffffffffffff1916817bffffffffffffffffffffffffffffffffffffffffffffffffffffffff19161491505061280b565b600190505b949350505050565b6060600082141561285b576040518060400160405280600181526020017f300000000000000000000000000000000000000000000000000000000000000081525090506129bb565b600082905060005b6000821461288d578080612876906144d9565b915050600a82612886919061431b565b9150612863565b60008167ffffffffffffffff8111156128cf577f4e487b7100000000000000000000000000000000000000000000000000000000600052604160045260246000fd5b6040519080825280601f01601f1916602001820160405280156129015781602001600182028036833780820191505090505b5090505b600085146129b45760018261291a91906143a6565b9150600a856129299190614536565b6030612935919061428e565b60f81b818381518110612971577f4e487b7100000000000000000000000000000000000000000000000000000000600052603260045260246000fd5b60200101907effffffffffffffffffffffffffffffffffffffffffffffffffffffffffffff1916908160001a905350600a856129ad919061431b565b9450612905565b8093505050505b919050565b6000848484846040516020016129d99493929190613e8f565b6040516020818303038152906040528051906020012060001c9050949350505050565b60008282604051602001612a11929190613c0f565b60405160208183030381529060405280519060200120905092915050565b612a398383612a9d565b612a46600084848461267c565b612a85576040517f08c379a0000000000000000000000000000000000000000000000000000000008152600401612a7c90613ef6565b60405180910390fd5b505050565b600080823b905060008111915050919050565b600073ffffffffffffffffffffffffffffffffffffffff168273ffffffffffffffffffffffffffffffffffffffff161415612b0d576040517f08c379a0000000000000000000000000000000000000000000000000000000008152600401612b0490614056565b60405180910390fd5b612b1681611ade565b15612b56576040517f08c379a0000000000000000000000000000000000000000000000000000000008152600401612b4d90613f16565b60405180910390fd5b612b6260008383612659565b6001600360008473ffffffffffffffffffffffffffffffffffffffff1673ffffffffffffffffffffffffffffffffffffffff1681526020019081526020016000206000828254612bb2919061428e565b92505081905550816002600083815260200190815260200160002060006101000a81548173ffffffffffffffffffffffffffffffffffffffff021916908373ffffffffffffffffffffffffffffffffffffffff160217905550808273ffffffffffffffffffffffffffffffffffffffff16600073ffffffffffffffffffffffffffffffffffffffff167fddf252ad1be2c89b69c2b068fc378daa952ba7f163c4a11628f55a4df523b3ef60405160405180910390a45050565b828054612c77906144a7565b90600052602060002090601f016020900481019282612c995760008555612ce0565b82601f10612cb257805160ff1916838001178555612ce0565b82800160010185558215612ce0579182015b82811115612cdf578251825591602001919060010190612cc4565b5b509050612ced9190612cf1565b5090565b5b80821115612d0a576000816000905550600101612cf2565b5090565b6000612d21612d1c846141eb565b6141ba565b905082815260208101848484011115612d3957600080fd5b612d44848285614465565b509392505050565b6000612d5f612d5a8461421b565b6141ba565b905082815260208101848484011115612d7757600080fd5b612d82848285614465565b509392505050565b600081359050612d9981614634565b92915050565b600081359050612dae8161464b565b92915050565b600081519050612dc38161464b565b92915050565b600081359050612dd881614662565b92915050565b600081359050612ded81614679565b92915050565b600081519050612e0281614679565b92915050565b600082601f830112612e1957600080fd5b8135612e29848260208601612d0e565b91505092915050565b600082601f830112612e4357600080fd5b8135612e53848260208601612d4c565b91505092915050565b600081359050612e6b81614690565b92915050565b600060208284031215612e8357600080fd5b6000612e9184828501612d8a565b91505092915050565b60008060408385031215612ead57600080fd5b6000612ebb85828601612d8a565b9250506020612ecc85828601612d8a565b9150509250929050565b600080600060608486031215612eeb57600080fd5b6000612ef986828701612d8a565b9350506020612f0a86828701612d8a565b9250506040612f1b86828701612e5c565b9150509250925092565b60008060008060808587031215612f3b57600080fd5b6000612f4987828801612d8a565b9450506020612f5a87828801612d8a565b9350506040612f6b87828801612e5c565b925050606085013567ffffffffffffffff811115612f8857600080fd5b612f9487828801612e08565b91505092959194509250565b60008060408385031215612fb357600080fd5b6000612fc185828601612d8a565b9250506020612fd285828601612d9f565b9150509250929050565b60008060408385031215612fef57600080fd5b6000612ffd85828601612d8a565b925050602061300e85828601612e5c565b9150509250929050565b60006020828403121561302a57600080fd5b600061303884828501612db4565b91505092915050565b60006020828403121561305357600080fd5b600061306184828501612dc9565b91505092915050565b6000806040838503121561307d57600080fd5b600061308b85828601612dc9565b925050602061309c85828601612e5c565b9150509250929050565b6000602082840312156130b857600080fd5b60006130c684828501612dde565b91505092915050565b6000602082840312156130e157600080fd5b60006130ef84828501612df3565b91505092915050565b60006020828403121561310a57600080fd5b600082013567ffffffffffffffff81111561312457600080fd5b61313084828501612e32565b91505092915050565b60006020828403121561314b57600080fd5b600061315984828501612e5c565b91505092915050565b61316b816143da565b82525050565b61317a816143ec565b82525050565b613189816143f8565b82525050565b6131a061319b826143f8565b614522565b82525050565b60006131b18261424b565b6131bb8185614261565b93506131cb818560208601614474565b6131d481614623565b840191505092915050565b60006131ea82614256565b6131f48185614272565b9350613204818560208601614474565b61320d81614623565b840191505092915050565b600061322382614256565b61322d8185614283565b935061323d818560208601614474565b80840191505092915050565b6000613256603283614272565b91507f4552433732313a207472616e7366657220746f206e6f6e20455243373231526560008301527f63656976657220696d706c656d656e74657200000000000000000000000000006020830152604082019050919050565b60006132bc601c83614272565b91507f4552433732313a20746f6b656e20616c7265616479206d696e746564000000006000830152602082019050919050565b60006132fc601f83614272565b91507f546f6b656e496420686173206e6f74206265656e206d696e74656420796574006000830152602082019050919050565b600061333c602483614272565b91507f4552433732313a207472616e7366657220746f20746865207a65726f2061646460008301527f72657373000000000000000000000000000000000000000000000000000000006020830152604082019050919050565b60006133a2601983614272565b91507f4552433732313a20617070726f766520746f2063616c6c6572000000000000006000830152602082019050919050565b60006133e2601783614272565b91507f746f6b656e55524920697320616c7265616479207365740000000000000000006000830152602082019050919050565b6000613422602c83614272565b91507f4552433732313a206f70657261746f7220717565727920666f72206e6f6e657860008301527f697374656e7420746f6b656e00000000000000000000000000000000000000006020830152604082019050919050565b6000613488601d83614283565b91507f272066696c6c3d277472616e73706172656e7427207374726f6b653d270000006000830152601d82019050919050565b60006134c8600183614283565b91507f20000000000000000000000000000000000000000000000000000000000000006000830152600182019050919050565b6000613508600383614283565b91507f272f3e00000000000000000000000000000000000000000000000000000000006000830152600382019050919050565b6000613548603883614272565b91507f4552433732313a20617070726f76652063616c6c6572206973206e6f74206f7760008301527f6e6572206e6f7220617070726f76656420666f7220616c6c00000000000000006020830152604082019050919050565b60006135ae602a83614272565b91507f4552433732313a2062616c616e636520717565727920666f7220746865207a6560008301527f726f2061646472657373000000000000000000000000000000000000000000006020830152604082019050919050565b6000613614602983614272565b91507f4552433732313a206f776e657220717565727920666f72206e6f6e657869737460008301527f656e7420746f6b656e00000000000000000000000000000000000000000000006020830152604082019050919050565b600061367a602e83614272565b91507f45524337323155524953746f726167653a2055524920736574206f66206e6f6e60008301527f6578697374656e7420746f6b656e0000000000000000000000000000000000006020830152604082019050919050565b60006136e0600283614283565b91507f227d0000000000000000000000000000000000000000000000000000000000006000830152600282019050919050565b6000613720602083614272565b91507f4552433732313a206d696e7420746f20746865207a65726f20616464726573736000830152602082019050919050565b6000613760603183614272565b91507f45524337323155524953746f726167653a2055524920717565727920666f722060008301527f6e6f6e6578697374656e7420746f6b656e0000000000000000000000000000006020830152604082019050919050565b60006137c6602c83614272565b91507f4552433732313a20617070726f76656420717565727920666f72206e6f6e657860008301527f697374656e7420746f6b656e00000000000000000000000000000000000000006020830152604082019050919050565b600061382c602983614272565b91507f4552433732313a207472616e73666572206f6620746f6b656e2074686174206960008301527f73206e6f74206f776e00000000000000000000000000000000000000000000006020830152604082019050919050565b6000613892603083614283565b91507f3c73766720786d6c6e733d27687474703a2f2f7777772e77332e6f72672f323060008301527f30302f73766727206865696768743d27000000000000000000000000000000006020830152603082019050919050565b60006138f8602f83614272565b91507f4552433732314d657461646174613a2055524920717565727920666f72206e6f60008301527f6e6578697374656e7420746f6b656e00000000000000000000000000000000006020830152604082019050919050565b600061395e601f83614272565b91507f4f6e6c7920565246436f6f7264696e61746f722063616e2066756c66696c6c006000830152602082019050919050565b600061399e602183614272565b91507f4552433732313a20617070726f76616c20746f2063757272656e74206f776e6560008301527f72000000000000000000000000000000000000000000000000000000000000006020830152604082019050919050565b6000613a04603183614272565b91507f4552433732313a207472616e736665722063616c6c6572206973206e6f74206f60008301527f776e6572206e6f7220617070726f7665640000000000000000000000000000006020830152604082019050919050565b6000613a6a600283614283565b91507f273e0000000000000000000000000000000000000000000000000000000000006000830152600282019050919050565b6000613aaa605483614283565b91507f7b226e616d65223a22535647204e4654222c226465736372697074696f6e223a60008301527f22416e204e4654206261736564206f6e20616e20737667222c2261747472696260208301527f75746573223a2022222c22696d616765223a20220000000000000000000000006040830152605482019050919050565b6000613b36600683614283565b91507f3c2f7376673e00000000000000000000000000000000000000000000000000006000830152600682019050919050565b6000613b76601e83614272565b91507f4e65656420746f207761697420666f7220436861696e6c696e6b2056524600006000830152602082019050919050565b6000613bb6600983614283565b91507f272077696474683d2700000000000000000000000000000000000000000000006000830152600982019050919050565b613bf28161444e565b82525050565b613c09613c048261444e565b61452c565b82525050565b6000613c1b828561318f565b602082019150613c2b8284613bf8565b6020820191508190509392505050565b6000613c478284613218565b915081905092915050565b6000613c5e8285613218565b9150613c6a8284613218565b91508190509392505050565b6000613c828285613218565b9150613c8d8261347b565b9150613c998284613218565b9150613ca4826134fb565b91508190509392505050565b6000613cbc8286613218565b9150613cc7826134bb565b9150613cd38285613218565b9150613cde826134bb565b9150613cea8284613218565b9150819050949350505050565b6000613d038284613218565b9150613d0e82613b29565b915081905092915050565b6000613d2482613885565b9150613d308285613218565b9150613d3b82613ba9565b9150613d478284613218565b9150613d5282613a5d565b91508190509392505050565b6000613d6982613a9d565b9150613d758284613218565b9150613d80826136d3565b915081905092915050565b6000602082019050613da06000830184613162565b92915050565b6000608082019050613dbb6000830187613162565b613dc86020830186613162565b613dd56040830185613be9565b8181036060830152613de781846131a6565b905095945050505050565b6000606082019050613e076000830186613162565b613e146020830185613be9565b8181036040830152613e2681846131a6565b9050949350505050565b6000602082019050613e456000830184613171565b92915050565b6000602082019050613e606000830184613180565b92915050565b6000604082019050613e7b6000830185613180565b613e886020830184613be9565b9392505050565b6000608082019050613ea46000830187613180565b613eb16020830186613be9565b613ebe6040830185613162565b613ecb6060830184613be9565b95945050505050565b60006020820190508181036000830152613eee81846131df565b905092915050565b60006020820190508181036000830152613f0f81613249565b9050919050565b60006020820190508181036000830152613f2f816132af565b9050919050565b60006020820190508181036000830152613f4f816132ef565b9050919050565b60006020820190508181036000830152613f6f8161332f565b9050919050565b60006020820190508181036000830152613f8f81613395565b9050919050565b60006020820190508181036000830152613faf816133d5565b9050919050565b60006020820190508181036000830152613fcf81613415565b9050919050565b60006020820190508181036000830152613fef8161353b565b9050919050565b6000602082019050818103600083015261400f816135a1565b9050919050565b6000602082019050818103600083015261402f81613607565b9050919050565b6000602082019050818103600083015261404f8161366d565b9050919050565b6000602082019050818103600083015261406f81613713565b9050919050565b6000602082019050818103600083015261408f81613753565b9050919050565b600060208201905081810360008301526140af816137b9565b9050919050565b600060208201905081810360008301526140cf8161381f565b9050919050565b600060208201905081810360008301526140ef816138eb565b9050919050565b6000602082019050818103600083015261410f81613951565b9050919050565b6000602082019050818103600083015261412f81613991565b9050919050565b6000602082019050818103600083015261414f816139f7565b9050919050565b6000602082019050818103600083015261416f81613b69565b9050919050565b600060208201905061418b6000830184613be9565b92915050565b60006040820190506141a66000830185613be9565b6141b36020830184613be9565b9392505050565b6000604051905081810181811067ffffffffffffffff821117156141e1576141e06145f4565b5b8060405250919050565b600067ffffffffffffffff821115614206576142056145f4565b5b601f19601f8301169050602081019050919050565b600067ffffffffffffffff821115614236576142356145f4565b5b601f19601f8301169050602081019050919050565b600081519050919050565b600081519050919050565b600082825260208201905092915050565b600082825260208201905092915050565b600081905092915050565b60006142998261444e565b91506142a48361444e565b9250827fffffffffffffffffffffffffffffffffffffffffffffffffffffffffffffffff038211156142d9576142d8614567565b5b828201905092915050565b60006142ef82614458565b91506142fa83614458565b92508260ff038211156143105761430f614567565b5b828201905092915050565b60006143268261444e565b91506143318361444e565b92508261434157614340614596565b5b828204905092915050565b60006143578261444e565b91506143628361444e565b9250817fffffffffffffffffffffffffffffffffffffffffffffffffffffffffffffffff048311821515161561439b5761439a614567565b5b828202905092915050565b60006143b18261444e565b91506143bc8361444e565b9250828210156143cf576143ce614567565b5b828203905092915050565b60006143e58261442e565b9050919050565b60008115159050919050565b6000819050919050565b60007fffffffff0000000000000000000000000000000000000000000000000000000082169050919050565b600073ffffffffffffffffffffffffffffffffffffffff82169050919050565b6000819050919050565b600060ff82169050919050565b82818337600083830152505050565b60005b83811015614492578082015181840152602081019050614477565b838111156144a1576000848401525b50505050565b600060028204905060018216806144bf57607f821691505b602082108114156144d3576144d26145c5565b5b50919050565b60006144e48261444e565b91507fffffffffffffffffffffffffffffffffffffffffffffffffffffffffffffffff82141561451757614516614567565b5b600182019050919050565b6000819050919050565b6000819050919050565b60006145418261444e565b915061454c8361444e565b92508261455c5761455b614596565b5b828206905092915050565b7f4e487b7100000000000000000000000000000000000000000000000000000000600052601160045260246000fd5b7f4e487b7100000000000000000000000000000000000000000000000000000000600052601260045260246000fd5b7f4e487b7100000000000000000000000000000000000000000000000000000000600052602260045260246000fd5b7f4e487b7100000000000000000000000000000000000000000000000000000000600052604160045260246000fd5b6000601f19601f8301169050919050565b61463d816143da565b811461464857600080fd5b50565b614654816143ec565b811461465f57600080fd5b50565b61466b816143f8565b811461467657600080fd5b50565b61468281614402565b811461468d57600080fd5b50565b6146998161444e565b81146146a457600080fd5b5056fe4142434445464748494a4b4c4d4e4f505152535455565758595a6162636465666768696a6b6c6d6e6f707172737475767778797a303132333435363738392b2fa2646970667358221220721070373937c227b7d300b362a1ab6f3c161177ccfca40410bdb1a6dd5f90e464736f6c63430008000033",
  "devdoc": {
    "kind": "dev",
    "methods": {
      "approve(address,uint256)": {
        "details": "See {IERC721-approve}."
      },
      "balanceOf(address)": {
        "details": "See {IERC721-balanceOf}."
      },
      "getApproved(uint256)": {
        "details": "See {IERC721-getApproved}."
      },
      "isApprovedForAll(address,address)": {
        "details": "See {IERC721-isApprovedForAll}."
      },
      "name()": {
        "details": "See {IERC721Metadata-name}."
      },
      "ownerOf(uint256)": {
        "details": "See {IERC721-ownerOf}."
      },
      "safeTransferFrom(address,address,uint256)": {
        "details": "See {IERC721-safeTransferFrom}."
      },
      "safeTransferFrom(address,address,uint256,bytes)": {
        "details": "See {IERC721-safeTransferFrom}."
      },
      "setApprovalForAll(address,bool)": {
        "details": "See {IERC721-setApprovalForAll}."
      },
      "supportsInterface(bytes4)": {
        "details": "See {IERC165-supportsInterface}."
      },
      "symbol()": {
        "details": "See {IERC721Metadata-symbol}."
      },
      "tokenURI(uint256)": {
        "details": "See {IERC721Metadata-tokenURI}."
      },
      "transferFrom(address,address,uint256)": {
        "details": "See {IERC721-transferFrom}."
      }
    },
    "version": 1
  },
  "userdoc": {
    "kind": "user",
    "methods": {},
    "version": 1
  },
  "storageLayout": {
    "storage": [
      {
        "astId": 291,
        "contract": "contracts/RandomSVG.sol:RandomSVG",
        "label": "_name",
        "offset": 0,
        "slot": "0",
        "type": "t_string_storage"
      },
      {
        "astId": 293,
        "contract": "contracts/RandomSVG.sol:RandomSVG",
        "label": "_symbol",
        "offset": 0,
        "slot": "1",
        "type": "t_string_storage"
      },
      {
        "astId": 297,
        "contract": "contracts/RandomSVG.sol:RandomSVG",
        "label": "_owners",
        "offset": 0,
        "slot": "2",
        "type": "t_mapping(t_uint256,t_address)"
      },
      {
        "astId": 301,
        "contract": "contracts/RandomSVG.sol:RandomSVG",
        "label": "_balances",
        "offset": 0,
        "slot": "3",
        "type": "t_mapping(t_address,t_uint256)"
      },
      {
        "astId": 305,
        "contract": "contracts/RandomSVG.sol:RandomSVG",
        "label": "_tokenApprovals",
        "offset": 0,
        "slot": "4",
        "type": "t_mapping(t_uint256,t_address)"
      },
      {
        "astId": 311,
        "contract": "contracts/RandomSVG.sol:RandomSVG",
        "label": "_operatorApprovals",
        "offset": 0,
        "slot": "5",
        "type": "t_mapping(t_address,t_mapping(t_address,t_bool))"
      },
      {
        "astId": 1228,
        "contract": "contracts/RandomSVG.sol:RandomSVG",
        "label": "_tokenURIs",
        "offset": 0,
        "slot": "6",
        "type": "t_mapping(t_uint256,t_string_storage)"
      },
      {
        "astId": 79,
        "contract": "contracts/RandomSVG.sol:RandomSVG",
        "label": "nonces",
        "offset": 0,
        "slot": "7",
        "type": "t_mapping(t_bytes32,t_uint256)"
      },
      {
        "astId": 2054,
        "contract": "contracts/RandomSVG.sol:RandomSVG",
        "label": "keyHash",
        "offset": 0,
        "slot": "8",
        "type": "t_bytes32"
      },
      {
        "astId": 2056,
        "contract": "contracts/RandomSVG.sol:RandomSVG",
        "label": "fee",
        "offset": 0,
        "slot": "9",
        "type": "t_uint256"
      },
      {
        "astId": 2058,
        "contract": "contracts/RandomSVG.sol:RandomSVG",
        "label": "tokenCounter",
        "offset": 0,
        "slot": "10",
        "type": "t_uint256"
      },
      {
        "astId": 2060,
        "contract": "contracts/RandomSVG.sol:RandomSVG",
        "label": "maxNumberOfPaths",
        "offset": 0,
        "slot": "11",
        "type": "t_uint256"
      },
      {
        "astId": 2062,
        "contract": "contracts/RandomSVG.sol:RandomSVG",
        "label": "maxNumberOfCommands",
        "offset": 0,
        "slot": "12",
        "type": "t_uint256"
      },
      {
        "astId": 2064,
        "contract": "contracts/RandomSVG.sol:RandomSVG",
        "label": "size",
        "offset": 0,
        "slot": "13",
        "type": "t_uint256"
      },
      {
        "astId": 2067,
        "contract": "contracts/RandomSVG.sol:RandomSVG",
        "label": "pathCommands",
        "offset": 0,
        "slot": "14",
        "type": "t_array(t_string_storage)dyn_storage"
      },
      {
        "astId": 2070,
        "contract": "contracts/RandomSVG.sol:RandomSVG",
        "label": "colors",
        "offset": 0,
        "slot": "15",
        "type": "t_array(t_string_storage)dyn_storage"
      },
      {
        "astId": 2074,
        "contract": "contracts/RandomSVG.sol:RandomSVG",
        "label": "requestIdToSender",
        "offset": 0,
        "slot": "16",
        "type": "t_mapping(t_bytes32,t_address)"
      },
      {
        "astId": 2078,
        "contract": "contracts/RandomSVG.sol:RandomSVG",
        "label": "requestIdToTokenId",
        "offset": 0,
        "slot": "17",
        "type": "t_mapping(t_bytes32,t_uint256)"
      },
      {
        "astId": 2082,
        "contract": "contracts/RandomSVG.sol:RandomSVG",
        "label": "tokenIdToRandomNumber",
        "offset": 0,
        "slot": "18",
        "type": "t_mapping(t_uint256,t_uint256)"
      }
    ],
    "types": {
      "t_address": {
        "encoding": "inplace",
        "label": "address",
        "numberOfBytes": "20"
      },
      "t_array(t_string_storage)dyn_storage": {
        "base": "t_string_storage",
        "encoding": "dynamic_array",
        "label": "string[]",
        "numberOfBytes": "32"
      },
      "t_bool": {
        "encoding": "inplace",
        "label": "bool",
        "numberOfBytes": "1"
      },
      "t_bytes32": {
        "encoding": "inplace",
        "label": "bytes32",
        "numberOfBytes": "32"
      },
      "t_mapping(t_address,t_bool)": {
        "encoding": "mapping",
        "key": "t_address",
        "label": "mapping(address => bool)",
        "numberOfBytes": "32",
        "value": "t_bool"
      },
      "t_mapping(t_address,t_mapping(t_address,t_bool))": {
        "encoding": "mapping",
        "key": "t_address",
        "label": "mapping(address => mapping(address => bool))",
        "numberOfBytes": "32",
        "value": "t_mapping(t_address,t_bool)"
      },
      "t_mapping(t_address,t_uint256)": {
        "encoding": "mapping",
        "key": "t_address",
        "label": "mapping(address => uint256)",
        "numberOfBytes": "32",
        "value": "t_uint256"
      },
      "t_mapping(t_bytes32,t_address)": {
        "encoding": "mapping",
        "key": "t_bytes32",
        "label": "mapping(bytes32 => address)",
        "numberOfBytes": "32",
        "value": "t_address"
      },
      "t_mapping(t_bytes32,t_uint256)": {
        "encoding": "mapping",
        "key": "t_bytes32",
        "label": "mapping(bytes32 => uint256)",
        "numberOfBytes": "32",
        "value": "t_uint256"
      },
      "t_mapping(t_uint256,t_address)": {
        "encoding": "mapping",
        "key": "t_uint256",
        "label": "mapping(uint256 => address)",
        "numberOfBytes": "32",
        "value": "t_address"
      },
      "t_mapping(t_uint256,t_string_storage)": {
        "encoding": "mapping",
        "key": "t_uint256",
        "label": "mapping(uint256 => string)",
        "numberOfBytes": "32",
        "value": "t_string_storage"
      },
      "t_mapping(t_uint256,t_uint256)": {
        "encoding": "mapping",
        "key": "t_uint256",
        "label": "mapping(uint256 => uint256)",
        "numberOfBytes": "32",
        "value": "t_uint256"
      },
      "t_string_storage": {
        "encoding": "bytes",
        "label": "string",
        "numberOfBytes": "32"
      },
      "t_uint256": {
        "encoding": "inplace",
        "label": "uint256",
        "numberOfBytes": "32"
      }
    }
  }
}